{
  "_format": "hh-sol-artifact-1",
  "contractName": "Products",
  "sourceName": "contracts/Products.sol",
  "abi": [
    {
      "inputs": [
        {
          "internalType": "string",
          "name": "id",
          "type": "string"
        },
        {
          "internalType": "string",
          "name": "category",
          "type": "string"
        },
        {
          "internalType": "bool",
          "name": "halal",
          "type": "bool"
        },
        {
          "internalType": "string",
          "name": "slaughterhouseName",
          "type": "string"
        },
        {
          "internalType": "string",
          "name": "slaughterhouseLocation",
          "type": "string"
        },
        {
          "internalType": "uint256",
          "name": "useWithinDays",
          "type": "uint256"
        },
        {
          "internalType": "uint256",
          "name": "batchNo",
          "type": "uint256"
        }
      ],
      "name": "addToBlockchain",
      "outputs": [],
      "stateMutability": "nonpayable",
      "type": "function"
    },
    {
      "inputs": [],
      "name": "getAllProducts",
      "outputs": [
        {
          "components": [
            {
              "internalType": "string",
              "name": "id",
              "type": "string"
            },
            {
              "internalType": "address",
              "name": "sender",
              "type": "address"
            },
            {
              "internalType": "string",
              "name": "category",
              "type": "string"
            },
            {
              "internalType": "bool",
              "name": "halal",
              "type": "bool"
            },
            {
              "internalType": "string",
              "name": "slaughterhouseName",
              "type": "string"
            },
            {
              "internalType": "string",
              "name": "slaughterhouseLocation",
              "type": "string"
            },
            {
              "internalType": "uint256",
              "name": "timestamp",
              "type": "uint256"
            },
            {
              "internalType": "uint256",
              "name": "useWithinDays",
              "type": "uint256"
            },
            {
              "internalType": "uint256",
              "name": "batchNo",
              "type": "uint256"
            }
          ],
          "internalType": "struct Products.ProductStruct[]",
          "name": "",
          "type": "tuple[]"
        }
      ],
      "stateMutability": "view",
      "type": "function"
    },
    {
      "inputs": [
        {
          "internalType": "string",
          "name": "ID",
          "type": "string"
        }
      ],
      "name": "getProductById",
      "outputs": [
        {
          "components": [
            {
              "internalType": "string",
              "name": "id",
              "type": "string"
            },
            {
              "internalType": "address",
              "name": "sender",
              "type": "address"
            },
            {
              "internalType": "string",
              "name": "category",
              "type": "string"
            },
            {
              "internalType": "bool",
              "name": "halal",
              "type": "bool"
            },
            {
              "internalType": "string",
              "name": "slaughterhouseName",
              "type": "string"
            },
            {
              "internalType": "string",
              "name": "slaughterhouseLocation",
              "type": "string"
            },
            {
              "internalType": "uint256",
              "name": "timestamp",
              "type": "uint256"
            },
            {
              "internalType": "uint256",
              "name": "useWithinDays",
              "type": "uint256"
            },
            {
              "internalType": "uint256",
              "name": "batchNo",
              "type": "uint256"
            }
          ],
          "internalType": "struct Products.ProductStruct",
          "name": "",
          "type": "tuple"
        }
      ],
      "stateMutability": "view",
      "type": "function"
    },
    {
      "inputs": [],
      "name": "getProductCount",
      "outputs": [
        {
          "internalType": "uint256",
          "name": "",
          "type": "uint256"
        }
      ],
      "stateMutability": "view",
      "type": "function"
    }
  ],
  "bytecode": "0x608060405234801561001057600080fd5b506113c1806100206000396000f3fe608060405234801561001057600080fd5b506004361061004c5760003560e01c806302ee3a52146100515780632352d4aa1461006f5780634a348da91461009f578063f885f454146100bd575b600080fd5b6100596100d9565b604051610066919061102f565b60405180910390f35b61008960048036038101906100849190610b60565b610410565b6040516100969190611051565b60405180910390f35b6100a761081d565b6040516100b49190611073565b60405180910390f35b6100d760048036038101906100d29190610ba1565b610826565b005b60606001805480602002602001604051908101604052809291908181526020016000905b8282101561040757838290600052602060002090600902016040518061012001604052908160008201805461013190611244565b80601f016020809104026020016040519081016040528092919081815260200182805461015d90611244565b80156101aa5780601f1061017f576101008083540402835291602001916101aa565b820191906000526020600020905b81548152906001019060200180831161018d57829003601f168201915b505050505081526020016001820160009054906101000a900473ffffffffffffffffffffffffffffffffffffffff1673ffffffffffffffffffffffffffffffffffffffff1673ffffffffffffffffffffffffffffffffffffffff16815260200160028201805461021990611244565b80601f016020809104026020016040519081016040528092919081815260200182805461024590611244565b80156102925780601f1061026757610100808354040283529160200191610292565b820191906000526020600020905b81548152906001019060200180831161027557829003601f168201915b505050505081526020016003820160009054906101000a900460ff161515151581526020016004820180546102c690611244565b80601f01602080910402602001604051908101604052809291908181526020018280546102f290611244565b801561033f5780601f106103145761010080835404028352916020019161033f565b820191906000526020600020905b81548152906001019060200180831161032257829003601f168201915b5050505050815260200160058201805461035890611244565b80601f016020809104026020016040519081016040528092919081815260200182805461038490611244565b80156103d15780601f106103a6576101008083540402835291602001916103d1565b820191906000526020600020905b8154815290600101906020018083116103b457829003601f168201915b505050505081526020016006820154815260200160078201548152602001600882015481525050815260200190600101906100fd565b50505050905090565b6104186109c7565b6104206109c7565b60005b60018054905081101561081357836040516020016104419190611001565b6040516020818303038152906040528051906020012060018281548110610491577f4e487b7100000000000000000000000000000000000000000000000000000000600052603260045260246000fd5b90600052602060002090600902016000016040516020016104b29190611018565b6040516020818303038152906040528051906020012014156108005760018181548110610508577f4e487b7100000000000000000000000000000000000000000000000000000000600052603260045260246000fd5b90600052602060002090600902016040518061012001604052908160008201805461053290611244565b80601f016020809104026020016040519081016040528092919081815260200182805461055e90611244565b80156105ab5780601f10610580576101008083540402835291602001916105ab565b820191906000526020600020905b81548152906001019060200180831161058e57829003601f168201915b505050505081526020016001820160009054906101000a900473ffffffffffffffffffffffffffffffffffffffff1673ffffffffffffffffffffffffffffffffffffffff1673ffffffffffffffffffffffffffffffffffffffff16815260200160028201805461061a90611244565b80601f016020809104026020016040519081016040528092919081815260200182805461064690611244565b80156106935780601f1061066857610100808354040283529160200191610693565b820191906000526020600020905b81548152906001019060200180831161067657829003601f168201915b505050505081526020016003820160009054906101000a900460ff161515151581526020016004820180546106c790611244565b80601f01602080910402602001604051908101604052809291908181526020018280546106f390611244565b80156107405780601f1061071557610100808354040283529160200191610740565b820191906000526020600020905b81548152906001019060200180831161072357829003601f168201915b5050505050815260200160058201805461075990611244565b80601f016020809104026020016040519081016040528092919081815260200182805461078590611244565b80156107d25780601f106107a7576101008083540402835291602001916107d2565b820191906000526020600020905b8154815290600101906020018083116107b557829003601f168201915b5050505050815260200160068201548152602001600782015481526020016008820154815250509150610813565b808061080b90611276565b915050610423565b5080915050919050565b60008054905090565b60016000808282546108389190611164565b9250508190555060016040518061012001604052808981526020013373ffffffffffffffffffffffffffffffffffffffff168152602001888152602001871515815260200186815260200185815260200142815260200184815260200183815250908060018154018082558091505060019003906000526020600020906009020160009091909190915060008201518160000190805190602001906108de929190610a2b565b5060208201518160010160006101000a81548173ffffffffffffffffffffffffffffffffffffffff021916908373ffffffffffffffffffffffffffffffffffffffff1602179055506040820151816002019080519060200190610942929190610a2b565b5060608201518160030160006101000a81548160ff021916908315150217905550608082015181600401908051906020019061097f929190610a2b565b5060a082015181600501908051906020019061099c929190610a2b565b5060c0820151816006015560e082015181600701556101008201518160080155505050505050505050565b60405180610120016040528060608152602001600073ffffffffffffffffffffffffffffffffffffffff1681526020016060815260200160001515815260200160608152602001606081526020016000815260200160008152602001600081525090565b828054610a3790611244565b90600052602060002090601f016020900481019282610a595760008555610aa0565b82601f10610a7257805160ff1916838001178555610aa0565b82800160010185558215610aa0579182015b82811115610a9f578251825591602001919060010190610a84565b5b509050610aad9190610ab1565b5090565b5b80821115610aca576000816000905550600101610ab2565b5090565b6000610ae1610adc846110bf565b61108e565b905082815260208101848484011115610af957600080fd5b610b04848285611202565b509392505050565b600081359050610b1b8161135d565b92915050565b600082601f830112610b3257600080fd5b8135610b42848260208601610ace565b91505092915050565b600081359050610b5a81611374565b92915050565b600060208284031215610b7257600080fd5b600082013567ffffffffffffffff811115610b8c57600080fd5b610b9884828501610b21565b91505092915050565b600080600080600080600060e0888a031215610bbc57600080fd5b600088013567ffffffffffffffff811115610bd657600080fd5b610be28a828b01610b21565b975050602088013567ffffffffffffffff811115610bff57600080fd5b610c0b8a828b01610b21565b9650506040610c1c8a828b01610b0c565b955050606088013567ffffffffffffffff811115610c3957600080fd5b610c458a828b01610b21565b945050608088013567ffffffffffffffff811115610c6257600080fd5b610c6e8a828b01610b21565b93505060a0610c7f8a828b01610b4b565b92505060c0610c908a828b01610b4b565b91505092959891949750929550565b6000610cab8383610e2f565b905092915050565b610cbc816111ba565b82525050565b6000610ccd82611114565b610cd78185611137565b935083602082028501610ce9856110ef565b8060005b85811015610d255784840389528151610d068582610c9f565b9450610d118361112a565b925060208a01995050600181019050610ced565b50829750879550505050505092915050565b610d40816111cc565b82525050565b6000610d518261111f565b610d5b8185611148565b9350610d6b818560208601611211565b610d748161134c565b840191505092915050565b6000610d8a8261111f565b610d948185611159565b9350610da4818560208601611211565b80840191505092915050565b60008154610dbd81611244565b610dc78186611159565b94506001821660008114610de25760018114610df357610e26565b60ff19831686528186019350610e26565b610dfc856110ff565b60005b83811015610e1e57815481890152600182019150602081019050610dff565b838801955050505b50505092915050565b6000610120830160008301518482036000860152610e4d8282610d46565b9150506020830151610e626020860182610cb3565b5060408301518482036040860152610e7a8282610d46565b9150506060830151610e8f6060860182610d37565b5060808301518482036080860152610ea78282610d46565b91505060a083015184820360a0860152610ec18282610d46565b91505060c0830151610ed660c0860182610fe3565b5060e0830151610ee960e0860182610fe3565b50610100830151610efe610100860182610fe3565b508091505092915050565b6000610120830160008301518482036000860152610f278282610d46565b9150506020830151610f3c6020860182610cb3565b5060408301518482036040860152610f548282610d46565b9150506060830151610f696060860182610d37565b5060808301518482036080860152610f818282610d46565b91505060a083015184820360a0860152610f9b8282610d46565b91505060c0830151610fb060c0860182610fe3565b5060e0830151610fc360e0860182610fe3565b50610100830151610fd8610100860182610fe3565b508091505092915050565b610fec816111f8565b82525050565b610ffb816111f8565b82525050565b600061100d8284610d7f565b915081905092915050565b60006110248284610db0565b915081905092915050565b600060208201905081810360008301526110498184610cc2565b905092915050565b6000602082019050818103600083015261106b8184610f09565b905092915050565b60006020820190506110886000830184610ff2565b92915050565b6000604051905081810181811067ffffffffffffffff821117156110b5576110b461131d565b5b8060405250919050565b600067ffffffffffffffff8211156110da576110d961131d565b5b601f19601f8301169050602081019050919050565b6000819050602082019050919050565b60008190508160005260206000209050919050565b600081519050919050565b600081519050919050565b6000602082019050919050565b600082825260208201905092915050565b600082825260208201905092915050565b600081905092915050565b600061116f826111f8565b915061117a836111f8565b9250827fffffffffffffffffffffffffffffffffffffffffffffffffffffffffffffffff038211156111af576111ae6112bf565b5b828201905092915050565b60006111c5826111d8565b9050919050565b60008115159050919050565b600073ffffffffffffffffffffffffffffffffffffffff82169050919050565b6000819050919050565b82818337600083830152505050565b60005b8381101561122f578082015181840152602081019050611214565b8381111561123e576000848401525b50505050565b6000600282049050600182168061125c57607f821691505b602082108114156112705761126f6112ee565b5b50919050565b6000611281826111f8565b91507fffffffffffffffffffffffffffffffffffffffffffffffffffffffffffffffff8214156112b4576112b36112bf565b5b600182019050919050565b7f4e487b7100000000000000000000000000000000000000000000000000000000600052601160045260246000fd5b7f4e487b7100000000000000000000000000000000000000000000000000000000600052602260045260246000fd5b7f4e487b7100000000000000000000000000000000000000000000000000000000600052604160045260246000fd5b6000601f19601f8301169050919050565b611366816111cc565b811461137157600080fd5b50565b61137d816111f8565b811461138857600080fd5b5056fea2646970667358221220c9d246afcb035f80d338e1d1a344a4b1391b8bd5bf354b9c9db6e44e7825343664736f6c63430008000033",
  "linkReferences": {},
  "deployedLinkReferences": {}
}